{
  "address": "0x0fC96c67d17021e5d28Fac857A51d7c6F4e7d434",
  "abi": [
    {
      "inputs": [
        {
          "internalType": "address",
          "name": "exampleExternalContractAddress",
          "type": "address"
        }
      ],
      "stateMutability": "nonpayable",
      "type": "constructor"
    },
    {
      "anonymous": false,
      "inputs": [
        {
          "indexed": false,
          "internalType": "address",
          "name": "",
          "type": "address"
        },
        {
          "indexed": false,
          "internalType": "uint256",
          "name": "",
          "type": "uint256"
        }
      ],
      "name": "Stake",
      "type": "event"
    },
    {
      "inputs": [
        {
          "internalType": "address",
          "name": "",
          "type": "address"
        }
      ],
      "name": "balances",
      "outputs": [
        {
          "internalType": "uint256",
          "name": "",
          "type": "uint256"
        }
      ],
      "stateMutability": "view",
      "type": "function"
    },
    {
      "inputs": [],
      "name": "deadline",
      "outputs": [
        {
          "internalType": "uint256",
          "name": "",
          "type": "uint256"
        }
      ],
      "stateMutability": "view",
      "type": "function"
    },
    {
      "inputs": [],
      "name": "exampleExternalContract",
      "outputs": [
        {
          "internalType": "contract ExampleExternalContract",
          "name": "",
          "type": "address"
        }
      ],
      "stateMutability": "view",
      "type": "function"
    },
    {
      "inputs": [],
      "name": "execute",
      "outputs": [],
      "stateMutability": "nonpayable",
      "type": "function"
    },
    {
      "inputs": [],
      "name": "openForWithdraw",
      "outputs": [
        {
          "internalType": "bool",
          "name": "",
          "type": "bool"
        }
      ],
      "stateMutability": "view",
      "type": "function"
    },
    {
      "inputs": [],
      "name": "stake",
      "outputs": [],
      "stateMutability": "payable",
      "type": "function"
    },
    {
      "inputs": [],
      "name": "threshold",
      "outputs": [
        {
          "internalType": "uint256",
          "name": "",
          "type": "uint256"
        }
      ],
      "stateMutability": "view",
      "type": "function"
    },
    {
      "inputs": [],
      "name": "timeLeft",
      "outputs": [
        {
          "internalType": "uint256",
          "name": "",
          "type": "uint256"
        }
      ],
      "stateMutability": "view",
      "type": "function"
    },
    {
      "inputs": [],
      "name": "withdraw",
      "outputs": [],
      "stateMutability": "nonpayable",
      "type": "function"
    },
    {
      "stateMutability": "payable",
      "type": "receive"
    }
  ],
  "transactionHash": "0x9ef29c67bd33f927863cb571d9442fd38c2f11ec3b0ef0d7087eee6bf6985a63",
  "args": [
    "0xa078d61A54d3a5693Da79c3E17118837F68d8724"
  ],
  "numDeployments": 1,
  "solcInputHash": "c3cbd553cb3355105272cb7797299f34",
  "bytecode": "0x608060405234801561001057600080fd5b5060405161058438038061058483398101604081905261002f91610065565b60028054610100600160a81b0319166101006001600160a01b0384160217905561005c426203f480610095565b600155506100bc565b60006020828403121561007757600080fd5b81516001600160a01b038116811461008e57600080fd5b9392505050565b808201808211156100b657634e487b7160e01b600052601160045260246000fd5b92915050565b6104b9806100cb6000396000f3fe60806040526004361061008a5760003560e01c80633ccfd60b116100595780633ccfd60b1461015857806342cde4e81461016d57806361461954146101895780639876a6431461019e5780639f75f227146101c857600080fd5b80631300a6d1146100e557806327e235e31461010d57806329dcb0cf1461013a5780633a4b66f11461015057600080fd5b366100e057306001600160a01b0316633ccfd60b6040518163ffffffff1660e01b8152600401600060405180830381600087803b1580156100ca57600080fd5b505af11580156100de573d6000803e3d6000fd5b005b600080fd5b3480156100f157600080fd5b506100fa610205565b6040519081526020015b60405180910390f35b34801561011957600080fd5b506100fa610128366004610411565b60006020819052908152604090205481565b34801561014657600080fd5b506100fa60015481565b6100de610229565b34801561016457600080fd5b506100de6102c8565b34801561017957600080fd5b506100fa670de0b6b3a764000081565b34801561019557600080fd5b506100de61034a565b3480156101aa57600080fd5b506002546101b89060ff1681565b6040519015158152602001610104565b3480156101d457600080fd5b506002546101ed9061010090046001600160a01b031681565b6040516001600160a01b039091168152602001610104565b600060015442106102165750600090565b426001546102249190610457565b905090565b600154421061026a5760405162461bcd60e51b8152602060048201526008602482015267746f6f206c61746560c01b60448201526064015b60405180910390fd5b3360009081526020819052604081208054349290610289908490610470565b9091555050604080513381523460208201527febedb8b3c678666e7f36970bc8f57abf6d8fa2e828c0da91ea5b75bf68ed101a910160405180910390a1565b60025460ff166103055760405162461bcd60e51b81526020600482015260086024820152673737ba1037b832b760c11b6044820152606401610261565b33600081815260208190526040808220805490839055905190929183156108fc02918491818181858888f19350505050158015610346573d6000803e3d6000fd5b5050565b6001544210156103885760405162461bcd60e51b8152602060048201526009602482015268746f6f206561726c7960b81b6044820152606401610261565b670de0b6b3a7640000471061040257600260019054906101000a90046001600160a01b03166001600160a01b031663522e1177476040518263ffffffff1660e01b81526004016000604051808303818588803b1580156103e757600080fd5b505af11580156103fb573d6000803e3d6000fd5b5050505050565b6002805460ff19166001179055565b60006020828403121561042357600080fd5b81356001600160a01b038116811461043a57600080fd5b9392505050565b634e487b7160e01b600052601160045260246000fd5b8181038181111561046a5761046a610441565b92915050565b8082018082111561046a5761046a61044156fea264697066735822122093a44055cda2da68cf505a1fdd56097d1c18bc7618afe78776ea8ba564e5e26564736f6c63430008140033",
  "devdoc": {
    "kind": "dev",
    "methods": {},
    "version": 1
  },
  "userdoc": {
    "kind": "user",
    "methods": {},
    "version": 1
  },
  "storageLayout": {
    "storage": [
      {
        "astId": 20,
        "contract": "contracts/Staker.sol:Staker",
        "label": "balances",
        "offset": 0,
        "slot": "0",
        "type": "t_mapping(t_address,t_uint256)"
      },
      {
        "astId": 22,
        "contract": "contracts/Staker.sol:Staker",
        "label": "deadline",
        "offset": 0,
        "slot": "1",
        "type": "t_uint256"
      },
      {
        "astId": 27,
        "contract": "contracts/Staker.sol:Staker",
        "label": "openForWithdraw",
        "offset": 0,
        "slot": "2",
        "type": "t_bool"
      },
      {
        "astId": 36,
        "contract": "contracts/Staker.sol:Staker",
        "label": "exampleExternalContract",
        "offset": 1,
        "slot": "2",
        "type": "t_contract(ExampleExternalContract)12"
      }
    ],
    "types": {
      "t_address": {
        "encoding": "inplace",
        "label": "address",
        "numberOfBytes": "20"
      },
      "t_bool": {
        "encoding": "inplace",
        "label": "bool",
        "numberOfBytes": "1"
      },
      "t_contract(ExampleExternalContract)12": {
        "encoding": "inplace",
        "label": "contract ExampleExternalContract",
        "numberOfBytes": "20"
      },
      "t_mapping(t_address,t_uint256)": {
        "encoding": "mapping",
        "key": "t_address",
        "label": "mapping(address => uint256)",
        "numberOfBytes": "32",
        "value": "t_uint256"
      },
      "t_uint256": {
        "encoding": "inplace",
        "label": "uint256",
        "numberOfBytes": "32"
      }
    }
  }
}