{
  "address": "0xb64688D9379ED656975f46eCE4685DBD57C3F678",
  "abi": [
    {
      "inputs": [
        {
          "internalType": "address payable",
          "name": "diceGameAddress",
          "type": "address"
        }
      ],
      "stateMutability": "nonpayable",
      "type": "constructor"
    },
    {
      "inputs": [
        {
          "internalType": "address",
          "name": "owner",
          "type": "address"
        }
      ],
      "name": "OwnableInvalidOwner",
      "type": "error"
    },
    {
      "inputs": [
        {
          "internalType": "address",
          "name": "account",
          "type": "address"
        }
      ],
      "name": "OwnableUnauthorizedAccount",
      "type": "error"
    },
    {
      "anonymous": false,
      "inputs": [
        {
          "indexed": true,
          "internalType": "address",
          "name": "previousOwner",
          "type": "address"
        },
        {
          "indexed": true,
          "internalType": "address",
          "name": "newOwner",
          "type": "address"
        }
      ],
      "name": "OwnershipTransferred",
      "type": "event"
    },
    {
      "inputs": [],
      "name": "diceGame",
      "outputs": [
        {
          "internalType": "contract DiceGame",
          "name": "",
          "type": "address"
        }
      ],
      "stateMutability": "view",
      "type": "function"
    },
    {
      "inputs": [],
      "name": "owner",
      "outputs": [
        {
          "internalType": "address",
          "name": "",
          "type": "address"
        }
      ],
      "stateMutability": "view",
      "type": "function"
    },
    {
      "inputs": [],
      "name": "renounceOwnership",
      "outputs": [],
      "stateMutability": "nonpayable",
      "type": "function"
    },
    {
      "inputs": [],
      "name": "riggedRoll",
      "outputs": [],
      "stateMutability": "payable",
      "type": "function"
    },
    {
      "inputs": [
        {
          "internalType": "address",
          "name": "newOwner",
          "type": "address"
        }
      ],
      "name": "transferOwnership",
      "outputs": [],
      "stateMutability": "nonpayable",
      "type": "function"
    },
    {
      "inputs": [
        {
          "internalType": "address",
          "name": "to",
          "type": "address"
        },
        {
          "internalType": "uint256",
          "name": "amount",
          "type": "uint256"
        }
      ],
      "name": "withdraw",
      "outputs": [],
      "stateMutability": "nonpayable",
      "type": "function"
    },
    {
      "stateMutability": "payable",
      "type": "receive"
    }
  ],
  "transactionHash": "0xdd0bc9ac442ae879f2c7466de86038e5f48fb25f129229d4f20a89174af51737",
  "args": [
    "0x8d3be3b77918cf85B7D2d49e00418b554105CB03"
  ],
  "numDeployments": 1,
  "solcInputHash": "ddf51445f11a241f382791ebe70fea94",
  "bytecode": "0x608060405234801561001057600080fd5b5060405161062e38038061062e83398101604081905261002f916100d4565b338061005557604051631e4fbdf760e01b81526000600482015260240160405180910390fd5b61005e81610084565b50600180546001600160a01b0319166001600160a01b0392909216919091179055610104565b600080546001600160a01b038381166001600160a01b0319831681178455604051919092169283917f8be0079c531659141344cd1fd0a4f28419497f9722a3daafe3b4186f6b6457e09190a35050565b6000602082840312156100e657600080fd5b81516001600160a01b03811681146100fd57600080fd5b9392505050565b61051b806101136000396000f3fe6080604052600436106100595760003560e01c80636b5e97f814610065578063715018a61461006f5780638da5cb5b146100845780638e288fd1146100ba578063f2fde38b146100da578063f3fef3a3146100fa57600080fd5b3661006057005b600080fd5b61006d61011a565b005b34801561007b57600080fd5b5061006d610309565b34801561009057600080fd5b506000546001600160a01b03165b6040516001600160a01b03909116815260200160405180910390f35b3480156100c657600080fd5b5060015461009e906001600160a01b031681565b3480156100e657600080fd5b5061006d6100f5366004610437565b61031d565b34801561010657600080fd5b5061006d610115366004610459565b61035b565b66071afd498d00004710156101765760405162461bcd60e51b815260206004820152601a60248201527f4c657373207468616e2072657175697265642062616c616e636500000000000060448201526064015b60405180910390fd5b6001546040805163057ff68760e51b815290516000926001600160a01b03169163affed0e09160048083019260209291908290030181865afa1580156101c0573d6000803e3d6000fd5b505050506040513d601f19601f820116820180604052508101906101e49190610483565b905060006101f360014361049c565b6001546040805192406020840181905260609290921b6bffffffffffffffffffffffff19169083015260548201849052915060009060740160408051601f198184030181529190528051602090910120905060006102526010836104c3565b905060058111156102935760405162461bcd60e51b815260206004820152600b60248201526a6e6f742077696e6e696e6760a81b604482015260640161016d565b600160009054906101000a90046001600160a01b03166001600160a01b0316637d789dee66071afd498d00006040518263ffffffff1660e01b81526004016000604051808303818588803b1580156102ea57600080fd5b505af11580156102fe573d6000803e3d6000fd5b505050505050505050565b61031161039e565b61031b60006103cb565b565b61032561039e565b6001600160a01b03811661034f57604051631e4fbdf760e01b81526000600482015260240161016d565b610358816103cb565b50565b61036361039e565b6040516001600160a01b0383169082156108fc029083906000818181858888f19350505050158015610399573d6000803e3d6000fd5b505050565b6000546001600160a01b0316331461031b5760405163118cdaa760e01b815233600482015260240161016d565b600080546001600160a01b038381166001600160a01b0319831681178455604051919092169283917f8be0079c531659141344cd1fd0a4f28419497f9722a3daafe3b4186f6b6457e09190a35050565b80356001600160a01b038116811461043257600080fd5b919050565b60006020828403121561044957600080fd5b6104528261041b565b9392505050565b6000806040838503121561046c57600080fd5b6104758361041b565b946020939093013593505050565b60006020828403121561049557600080fd5b5051919050565b818103818111156104bd57634e487b7160e01b600052601160045260246000fd5b92915050565b6000826104e057634e487b7160e01b600052601260045260246000fd5b50069056fea2646970667358221220672a943a335d336dd000ac65810803c5032f6aa1b2e48bf664b918228fa6217364736f6c63430008140033",
  "devdoc": {
    "errors": {
      "OwnableInvalidOwner(address)": [
        {
          "details": "The owner is not a valid owner account. (eg. `address(0)`)"
        }
      ],
      "OwnableUnauthorizedAccount(address)": [
        {
          "details": "The caller account is not authorized to perform an operation."
        }
      ]
    },
    "kind": "dev",
    "methods": {
      "owner()": {
        "details": "Returns the address of the current owner."
      },
      "renounceOwnership()": {
        "details": "Leaves the contract without owner. It will not be possible to call `onlyOwner` functions. Can only be called by the current owner. NOTE: Renouncing ownership will leave the contract without an owner, thereby disabling any functionality that is only available to the owner."
      },
      "transferOwnership(address)": {
        "details": "Transfers ownership of the contract to a new account (`newOwner`). Can only be called by the current owner."
      }
    },
    "version": 1
  },
  "userdoc": {
    "kind": "user",
    "methods": {},
    "version": 1
  },
  "storageLayout": {
    "storage": [
      {
        "astId": 8,
        "contract": "contracts/RiggedRoll.sol:RiggedRoll",
        "label": "_owner",
        "offset": 0,
        "slot": "0",
        "type": "t_address"
      },
      {
        "astId": 351,
        "contract": "contracts/RiggedRoll.sol:RiggedRoll",
        "label": "diceGame",
        "offset": 0,
        "slot": "1",
        "type": "t_contract(DiceGame)341"
      }
    ],
    "types": {
      "t_address": {
        "encoding": "inplace",
        "label": "address",
        "numberOfBytes": "20"
      },
      "t_contract(DiceGame)341": {
        "encoding": "inplace",
        "label": "contract DiceGame",
        "numberOfBytes": "20"
      }
    }
  }
}